{
  "contractName": "Transactions",
  "abi": [
    {
      "anonymous": false,
      "inputs": [
        {
          "indexed": false,
          "internalType": "address",
          "name": "from",
          "type": "address"
        },
        {
          "indexed": false,
          "internalType": "address",
          "name": "receiver",
          "type": "address"
        },
        {
          "indexed": false,
          "internalType": "uint256",
          "name": "amount",
          "type": "uint256"
        },
        {
          "indexed": false,
          "internalType": "string",
          "name": "message",
          "type": "string"
        },
        {
          "indexed": false,
          "internalType": "uint256",
          "name": "timestamp",
          "type": "uint256"
        }
      ],
      "name": "transfer",
      "type": "event"
    },
    {
      "inputs": [
        {
          "internalType": "address payable",
          "name": "receiver",
          "type": "address"
        },
        {
          "internalType": "uint256",
          "name": "amount",
          "type": "uint256"
        },
        {
          "internalType": "string",
          "name": "message",
          "type": "string"
        }
      ],
      "name": "addToTransactions",
      "outputs": [],
      "stateMutability": "nonpayable",
      "type": "function"
    },
    {
      "inputs": [],
      "name": "getAllTransaction",
      "outputs": [
        {
          "components": [
            {
              "internalType": "address",
              "name": "sender",
              "type": "address"
            },
            {
              "internalType": "address",
              "name": "receiver",
              "type": "address"
            },
            {
              "internalType": "uint256",
              "name": "amount",
              "type": "uint256"
            },
            {
              "internalType": "string",
              "name": "message",
              "type": "string"
            },
            {
              "internalType": "uint256",
              "name": "timestamp",
              "type": "uint256"
            }
          ],
          "internalType": "struct Transactions.TransferStruct[]",
          "name": "",
          "type": "tuple[]"
        }
      ],
      "stateMutability": "view",
      "type": "function",
      "constant": true
    },
    {
      "inputs": [],
      "name": "getTransactionCount",
      "outputs": [
        {
          "internalType": "uint256",
          "name": "",
          "type": "uint256"
        }
      ],
      "stateMutability": "view",
      "type": "function",
      "constant": true
    }
  ],
  "bytecode": "0x608060405234801561001057600080fd5b50610d0e806100206000396000f3fe608060405234801561001057600080fd5b50600436106100415760003560e01c80632e7700f0146100465780638d80ce9614610064578063add6415d14610080575b600080fd5b61004e61009e565b60405161005b9190610404565b60405180910390f35b61007e60048036038101906100799190610603565b6100a7565b005b61008861023a565b6040516100959190610859565b60405180910390f35b60008054905090565b6000808154809291906100b9906108aa565b919050555060016040518060a001604052803373ffffffffffffffffffffffffffffffffffffffff1681526020018573ffffffffffffffffffffffffffffffffffffffff16815260200184815260200183815260200142815250908060018154018082558091505060019003906000526020600020906005020160009091909190915060008201518160000160006101000a81548173ffffffffffffffffffffffffffffffffffffffff021916908373ffffffffffffffffffffffffffffffffffffffff16021790555060208201518160010160006101000a81548173ffffffffffffffffffffffffffffffffffffffff021916908373ffffffffffffffffffffffffffffffffffffffff1602179055506040820151816002015560608201518160030190816101e99190610afe565b506080820151816004015550507f73d7ee7f43cbd9f71335571e0c9a1dae045814b0b3fa805887926fa1ac6576a9338484844260405161022d959493929190610c7e565b60405180910390a1505050565b60606001805480602002602001604051908101604052809291908181526020016000905b828210156103e257838290600052602060002090600502016040518060a00160405290816000820160009054906101000a900473ffffffffffffffffffffffffffffffffffffffff1673ffffffffffffffffffffffffffffffffffffffff1673ffffffffffffffffffffffffffffffffffffffff1681526020016001820160009054906101000a900473ffffffffffffffffffffffffffffffffffffffff1673ffffffffffffffffffffffffffffffffffffffff1673ffffffffffffffffffffffffffffffffffffffff1681526020016002820154815260200160038201805461034790610921565b80601f016020809104026020016040519081016040528092919081815260200182805461037390610921565b80156103c05780601f10610395576101008083540402835291602001916103c0565b820191906000526020600020905b8154815290600101906020018083116103a357829003601f168201915b505050505081526020016004820154815250508152602001906001019061025e565b50505050905090565b6000819050919050565b6103fe816103eb565b82525050565b600060208201905061041960008301846103f5565b92915050565b6000604051905090565b600080fd5b600080fd5b600073ffffffffffffffffffffffffffffffffffffffff82169050919050565b600061045e82610433565b9050919050565b61046e81610453565b811461047957600080fd5b50565b60008135905061048b81610465565b92915050565b61049a816103eb565b81146104a557600080fd5b50565b6000813590506104b781610491565b92915050565b600080fd5b600080fd5b6000601f19601f8301169050919050565b7f4e487b7100000000000000000000000000000000000000000000000000000000600052604160045260246000fd5b610510826104c7565b810181811067ffffffffffffffff8211171561052f5761052e6104d8565b5b80604052505050565b600061054261041f565b905061054e8282610507565b919050565b600067ffffffffffffffff82111561056e5761056d6104d8565b5b610577826104c7565b9050602081019050919050565b82818337600083830152505050565b60006105a66105a184610553565b610538565b9050828152602081018484840111156105c2576105c16104c2565b5b6105cd848285610584565b509392505050565b600082601f8301126105ea576105e96104bd565b5b81356105fa848260208601610593565b91505092915050565b60008060006060848603121561061c5761061b610429565b5b600061062a8682870161047c565b935050602061063b868287016104a8565b925050604084013567ffffffffffffffff81111561065c5761065b61042e565b5b610668868287016105d5565b9150509250925092565b600081519050919050565b600082825260208201905092915050565b6000819050602082019050919050565b60006106a982610433565b9050919050565b6106b98161069e565b82525050565b6106c8816103eb565b82525050565b600081519050919050565b600082825260208201905092915050565b60005b838110156107085780820151818401526020810190506106ed565b60008484015250505050565b600061071f826106ce565b61072981856106d9565b93506107398185602086016106ea565b610742816104c7565b840191505092915050565b600060a08301600083015161076560008601826106b0565b50602083015161077860208601826106b0565b50604083015161078b60408601826106bf565b50606083015184820360608601526107a38282610714565b91505060808301516107b860808601826106bf565b508091505092915050565b60006107cf838361074d565b905092915050565b6000602082019050919050565b60006107ef82610672565b6107f9818561067d565b93508360208202850161080b8561068e565b8060005b85811015610847578484038952815161082885826107c3565b9450610833836107d7565b925060208a0199505060018101905061080f565b50829750879550505050505092915050565b6000602082019050818103600083015261087381846107e4565b905092915050565b7f4e487b7100000000000000000000000000000000000000000000000000000000600052601160045260246000fd5b60006108b5826103eb565b91507fffffffffffffffffffffffffffffffffffffffffffffffffffffffffffffffff82036108e7576108e661087b565b5b600182019050919050565b7f4e487b7100000000000000000000000000000000000000000000000000000000600052602260045260246000fd5b6000600282049050600182168061093957607f821691505b60208210810361094c5761094b6108f2565b5b50919050565b60008190508160005260206000209050919050565b60006020601f8301049050919050565b600082821b905092915050565b6000600883026109b47fffffffffffffffffffffffffffffffffffffffffffffffffffffffffffffffff82610977565b6109be8683610977565b95508019841693508086168417925050509392505050565b6000819050919050565b60006109fb6109f66109f1846103eb565b6109d6565b6103eb565b9050919050565b6000819050919050565b610a15836109e0565b610a29610a2182610a02565b848454610984565b825550505050565b600090565b610a3e610a31565b610a49818484610a0c565b505050565b5b81811015610a6d57610a62600082610a36565b600181019050610a4f565b5050565b601f821115610ab257610a8381610952565b610a8c84610967565b81016020851015610a9b578190505b610aaf610aa785610967565b830182610a4e565b50505b505050565b600082821c905092915050565b6000610ad560001984600802610ab7565b1980831691505092915050565b6000610aee8383610ac4565b9150826002028217905092915050565b610b07826106ce565b67ffffffffffffffff811115610b2057610b1f6104d8565b5b610b2a8254610921565b610b35828285610a71565b600060209050601f831160018114610b685760008415610b56578287015190505b610b608582610ae2565b865550610bc8565b601f198416610b7686610952565b60005b82811015610b9e57848901518255600182019150602085019450602081019050610b79565b86831015610bbb5784890151610bb7601f891682610ac4565b8355505b6001600288020188555050505b505050505050565b610bd98161069e565b82525050565b6000610bfa610bf5610bf084610433565b6109d6565b610433565b9050919050565b6000610c0c82610bdf565b9050919050565b6000610c1e82610c01565b9050919050565b610c2e81610c13565b82525050565b600082825260208201905092915050565b6000610c50826106ce565b610c5a8185610c34565b9350610c6a8185602086016106ea565b610c73816104c7565b840191505092915050565b600060a082019050610c936000830188610bd0565b610ca06020830187610c25565b610cad60408301866103f5565b8181036060830152610cbf8185610c45565b9050610cce60808301846103f5565b969550505050505056fea2646970667358221220449058d5fa774dd2c95348f526c6c7f9d27c1960daef72c376f97ac7b2c27a2f64736f6c63430008110033",
  "immutableReferences": {},
  "source": "// SPDX-License-Identifier: Unlicensed\n\npragma solidity >0.7.0 <=0.9.0;\n\ncontract Transactions {\n    uint256 transactionCounter;\n\n    event transfer(\n        address from,\n        address receiver,\n        uint256 amount,\n        string message,\n        uint256 timestamp\n        \n    );\n\n    struct TransferStruct {\n        address sender;\n        address receiver;\n        uint256 amount;\n        string message;\n        uint256 timestamp;\n    }\n\n    TransferStruct[] transactions;\n\n    function addToTransactions(\n        address payable receiver,\n        uint256 amount,\n        string memory message\n    ) public {\n        transactionCounter++;\n        transactions.push(\n            TransferStruct(\n                msg.sender,\n                receiver,\n                amount,\n                message,\n                block.timestamp\n                \n            )\n        );\n        emit transfer(\n            msg.sender,\n            receiver,\n            amount,\n            message,\n            block.timestamp\n            \n        );\n    }\n\n    function getAllTransaction() public view returns (TransferStruct[] memory) {\n        return transactions;\n    }\n\n    function getTransactionCount() public view returns (uint256) {\n        return transactionCounter;\n    }\n}\n",
  "sourcePath": "F:\\Decentralized\\crypt\\backend\\contracts\\Transactions.sol",
  "compiler": {
    "name": "solc",
    "version": "0.8.17+commit.8df45f5f.Emscripten.clang"
  },
  "schemaVersion": "3.4.10",
  "updatedAt": "2022-11-07T13:16:54.014Z",
  "networkType": "ethereum",
  "devdoc": {
    "kind": "dev",
    "methods": {},
    "version": 1
  },
  "userdoc": {
    "kind": "user",
    "methods": {},
    "version": 1
  }
}